:100000000C9434000C9451000C9451000C94510049
:100010000C9451000C9451000C9451000C9451001C
:100020000C9451000C9451000C9451000C9451000C
:100030000C9451000C9451000C9451000C945100FC
:100040000C9451000C9451000C9451000C945100EC
:100050000C9451000C9451000C9451000C945100DC
:100060000C9451000C94510011241FBECFEFD8E026
:10007000DEBFCDBF11E0A0E0B1E0E8EDF0E102C0ED
:1000800005900D92A834B107D9F721E0A8E4B1E0BA
:1000900001C01D92AC34B207E1F70E9465060C94D2
:1000A0006A080C9400000895CF93DF93D62FC42FD5
:1000B0008AE190E00E944007FC0184E695E091838C
:1000C000808387EB95E09383828383E590E0978B31
:1000D000868BD08FC18FCF01DF91CF910895CF93C1
:1000E000DF93EC018A819B81892B79F4E881F98186
:1000F00080819181DC015696ED91FC910995E88112
:10010000F981808191810E94D90788819981DF914D
:10011000CF910C94D907CF93DF9300D000D0CDB707
:10012000DEB7299A00001C821B828B819C81843659
:1001300091059CF085B192E0892785B900001A826B
:10014000198289819A81843691056CF00F900F9005
:100150000F900F90DF91CF9108958B819C81019634
:100160009C838B83E2CF89819A8101969A838983CC
:10017000E8CF84B18E6284B9249883E58CBD8DB5B7
:1001800081608DBD0895E0ECF0E080818260808325
:10019000E1ECF0E0808188608083E2ECF0E0808137
:1001A000866080831092C40008959091C00095FFEE
:1001B000FCCF8093C60008958EBD0DB406FE04C02A
:1001C00080E40E94D500FCCF8EB50DB407FEFCCFB5
:1001D000089580E00C94DC000E94E9008F3F09F450
:1001E00008950E948B0084E40E94DC00F5CF1F93E9
:1001F000CF93DF93182FD62FC42F0E948B0081E15D
:100200000E94DC00812F0E94DC0081E00E94DC0063
:100210008D2F0E94DC008C2F0E94DC000E94EC00DD
:1002200080E0DF91CF911F910895EF92FF920F939D
:100230001F93CF93DF9300D000D0CDB7DEB70E94DD
:100240008B0082E00E94DC0081E00E94DC0081E003
:100250000E94DC0019821A821B8280E88C838E0146
:100260000F5F1F4F7E0185E0E80EF11CF8018191C0
:100270008F010E94DC000E151F05C1F70E948B0044
:1002800083E10E94DC0080E20E94DC0081E20E94A7
:10029000DC0080E00E94DC0080E00E94DC0080E066
:1002A0000E94DC0080E00E94DC0080E00E94DC0014
:1002B0000E94EC0042E560E080E00E94F70040E030
:1002C00060E082E00E94F70040E061E082E00E948E
:1002D000F70040E062E082E00E94F70040E063E067
:1002E00082E00E94F70040E060E081E00E94F700B9
:1002F00040E663E080E00E94F70040E061E080E0DB
:100300000E94F70048E060E082E20E94F70041E0CE
:1003100061E082E20E94F70040E062E082E20E9437
:10032000F70040E06CE480E20E94F7004FEF6AE4DF
:1003300080E20E94F70048E060E080E10E94F70060
:1003400044E161E080E10E94F70040E062E080E18A
:100350000E94F7004FE063E080E10E94F70041E374
:1003600064E080E10E94F70040E065E080E10E94E7
:10037000F70040E066E080E10E94F70040E067E0BF
:1003800080E10E94F70040E068E080E10E94F70011
:1003900041E060E081E10E94F70044EB61E081E12F
:1003A0000E94F7004BE262E081E10E94F70040E02A
:1003B00063E081E10E94F70040E064E081E10E9497
:1003C000F70044E860E082E10E94F70041E061E06C
:1003D00082E10E94F70048E062E082E10E94F700BB
:1003E0004FEF63E082E10E94F7004FEF64E082E1AB
:1003F0000E94F70040E065E082E10E94F70042E0E1
:1004000066E082E10E94F70040E068E082E10E943D
:10041000F70040E069E082E10E94F70040E06AE016
:1004200082E10E94F70040E36BE082E10E94F70066
:1004300040E36CE082E10E94F70040E06DE082E181
:100440000E94F70040E46EE082E10E94F70044E081
:100450006FE082E10E94F70040E860E182E10E94E3
:10046000F70040E061E182E10E94F70040E062E1D4
:1004700082E10E94F70040E063E182E10E94F70020
:1004800040E064E182E10E94F70040E065E182E142
:100490000E94F70040E066E182E10E94F70040E040
:1004A00067E182E10E94F70040E068E182E10E949A
:1004B000F70040E069E182E10E94F70040E06AE174
:1004C00082E10E94F70040E06BE182E10E94F700C8
:1004D00040E06CE182E10E94F70040E06DE182E1E2
:1004E0000E94F70040E06EE182E10E94F70040E0E8
:1004F0006FE182E10E94F70040E060E282E10E9449
:10050000F70040E061E282E10E94F70040E062E231
:1005100082E10E94F70040E063E282E10E94F7007E
:1005200040E064E282E10E94F70040E065E282E19F
:100530000E94F70040E066E282E10E94F70040E09E
:1005400067E282E10E94F70040E068E282E10E94F7
:10055000F70040E069E282E10E94F70040E06AE2D1
:1005600082E10E94F70040E06BE282E10E94F70026
:1005700040E06CE282E10E94F70040E06DE282E13F
:100580000E94F70040E06EE282E10E94F70040E046
:100590006FE282E10E94F70040E060E382E10E94A6
:1005A000F70040E061E382E10E94F70040E062E38F
:1005B00082E10E94F70040E063E382E10E94F700DD
:1005C00040E064E382E10E94F70040E060E080E305
:1005D0000E94F70040E061E080E30E94F70040E005
:1005E00062E080E30E94F70040E063E080E30E9465
:1005F000F70040E064E080E30E94F70040E065E03F
:1006000080E30E94F70040E066E080E30E94F7008C
:1006100040E067E080E30E94F70040E068E080E3AC
:100620000E94F70040E069E080E30E94F70040E0AC
:100630006AE080E30E94F70040E06BE080E30E9404
:10064000F70042E060E080E20E94F70040E061E0F5
:1006500080E20E94F70047E062E080E20E94F7003B
:100660004AE061E580E20E94F7004CE260E083E24C
:100670000E94F7004EE061E083E20E94F7004BE049
:1006800062E083E20E94F70044E063E083E20E94BC
:10069000F7004CE064E083E20E94F70043E765E086
:1006A00083E20E94F70043E066E083E20E94F700E5
:1006B00040E063E080E20E94F70047E264E080E20D
:1006C0000E94F70040E165E080E20E94F70041E00F
:1006D00066E080E20E94F70049EC67E080E20E9459
:1006E000F70043EC68E080E20E94F70040E869E030
:1006F00080E20E94F70040E06AE080E20E94F7009A
:1007000045E06BE080E20E94F70046E76CE080E2A3
:100710000E94F70041E068E180E20E94F7004DE3AB
:1007200063E082E20E94F70048E360E080E40E9418
:10073000F7004DE061E080E40E94F7004DED62E0DB
:1007400080E40E94F7004DED63E080E40E94F70032
:1007500048E064E080E40E94F70041E365E080E463
:100760000E94F70040E266E080E40E94F7004EEF4E
:1007700067E080E40E94F70040E869E180E20E94BF
:10078000F70048E06AE180E20E94F70043E06BE195
:1007900080E20E94F70040E86CE180E20E94F700EE
:1007A00040E06DE180E20E94F70040E26EE180E20D
:1007B0000E94F70040E16FE180E20E94F70049E00B
:1007C00062E280E20E94F70044EC63E280E20E9471
:1007D000F70040E064E280E20E94F70044E365E253
:1007E00080E20E94F7004EE666E280E20E94F70097
:1007F00040E067E280E20E94F7004AE168E280E2BE
:100800000E94F70042E069E280E20E94F70042ECB9
:100810006AE280E20E94F70044E06CE280E20E941B
:10082000F70046E36DE280E20E94F70040E86EE2E6
:1008300080E20E94F70043E06FE280E20E94F7004E
:1008400041E560E380E20E94F70043EE61E380E26D
:100850000E94F70040E862E380E20E94F70042EE67
:1008600065E380E20E94F70041E168E380E20E94D4
:10087000F7004FEF69E380E20E94F7004FEF6AE371
:1008800080E20E94F70040E06BE380E20E94F70004
:1008900042E06CE380E20E94F7004FEF6DE380E2FC
:1008A0000E94F7004FEF6EE380E20E94F70040E005
:1008B0006FE380E20E94F7004BE260E480E20E9476
:1008C000F70044EA62E480E20E94F70042E063E459
:1008D00080E20E94F70046ED64E480E20E94F700A7
:1008E00043E865E480E20E94F70041E066E480E2CC
:1008F0000E94F7004FEF67E480E20E94F70041E0BA
:1009000068E480E20E94F70040E869E480E20E9427
:10091000F70040E46EE480E20E94F7004FEF60E0F1
:1009200081E20E94F7004AEB61E081E20E94F70059
:100930004FE062E081E20E94F70041E563E081E27E
:100940000E94F7004FEC64E081E20E94F70049EA60
:1009500065E081E20E94F70049EC66E081E20E94D6
:10096000F7004CEF67E081E20E94F7004BE168E09E
:1009700081E20E94F7004EE169E081E20E94F70007
:100980004FE06AE081E20E94F70041E06BE081E223
:100990000E94F7004CEF6CE081E20E94F7004DEFFF
:1009A0006DE081E20E94F70045E16EE081E20E9485
:1009B000F7004FEF6FE081E20E94F70040E060E156
:1009C00081E20E94F7004FE061E181E20E94F700BE
:1009D0004FEF62E181E20E94F7004AEB63E181E2BE
:1009E0000E94F7004FE064E181E20E94F70041E5D8
:1009F00065E181E20E94F7004FEC66E181E20E942E
:100A0000F70049EA67E181E20E94F70049EC68E1FA
:100A100081E20E94F7004CEF69E181E20E94F70059
:100A20004BE16AE181E20E94F7004EE16BE181E275
:100A30000E94F7004FE06CE181E20E94F70041E084
:100A40006DE181E20E94F7004CEF6EE181E20E94CD
:100A5000F7004DEF6FE181E20E94F70045E160E2AF
:100A600081E20E94F7004FEF61E281E20E94F7000D
:100A700040E062E281E20E94F7004FE063E281E23F
:100A80000F900F900F900F90DF91CF911F910F91CA
:100A9000FF90EF900C94F700CF93DF93D82FC62FE1
:100AA0000E948B0082E10E94DC008D2F0E94DC00FE
:100AB00081E00E94DC008C2F0E94DC000E94EC0090
:100AC000DF91CF910C94E900EF92FF920F931F9367
:100AD000CF93DF93EC017B010E948B0086E60E949E
:100AE000DC008701F12CE12C888D8E151F0409F0A4
:100AF000ACF581E60E94D5000E94EC0082E60E94DF
:100B0000D5000E948B0081E30E94DC00898D0E9449
:100B1000DC0080E00E94DC0080E00E94DC0080E4D9
:100B20000E94DC0083E60E94D5000E94EC0084E66F
:100B30000E94D5000E948B0083E30E94DC000E948B
:100B4000EC000E94E9008730A9F385E6DF91CF91A0
:100B50001F910F91FF90EF900C94D500F8018191B7
:100B60008F010E94DC00FFEFEF1AFF0ABDCFCF928A
:100B7000DF92EF92FF920F931F93CF93DF93EC01DD
:100B80000E948B0082E30E94DC00898D0E94DC00C1
:100B900080E00E94DC0080E00E94DC0083E00E9494
:100BA000DC0083E00E94DC0083E00E94DC000E9405
:100BB000EC000E948B0083E30E94DC000E94EC00AA
:100BC0000E94E9008830A9F3888D90E00E944007D8
:100BD0008C010E948B0087E70E94DC007801D12CF9
:100BE000C12C888D8C151D0409F064F40E94EC0062
:100BF000C801DF91CF911F910F91FF90EF90DF908F
:100C0000CF9008950E94E900F70181937F01FFEFE3
:100C1000CF1ADF0AE6CFEF92FF920F931F93CF9385
:100C2000DF937C0188E090E00E944007EC018FE6B2
:100C300090E09F838E8384E590E09D838C8382E0A7
:100C400090E00E9440078C0199838883FB82EA82AE
:100C5000EF2841F440E060E4CE010E945400F80126
:100C600091838083CE01DF91CF911F910F91FF90EF
:100C7000EF900895CF93DF93282F64E60E940C072E
:100C8000382F4CE94303C0011124820F911D6AE003
:100C900070E00E941807D62F205DC22F349FC00D30
:100CA000112480E3830F0E94D50080E38D0F0E9402
:100CB000D5008C2F96EFD99F800D11240E94D5006E
:100CC0008AE0DF91CF910C94D500CDB7DEB7CC543C
:100CD000D1090FB6F894DEBF0FBECDBF0E94C3008E
:100CE0000E94B90084B10E943A062D961CAE1DAE3A
:100CF0001EAE1FAE2D972D968CAD9DADAEADBFAD8A
:100D00002D9780349244AF40B10508F455C08FE36D
:100D10000E94D5008AE00E94D5000E94150181E260
:100D20000E94D5008AE00E94D50029961CAE1DAE17
:100D30001EAE1FAE299729968CAD9DADAEADBFAD51
:100D40002997803A9648A140B10508F445C081E250
:100D50000E94D5008AE00E94D50090E080E00E94C9
:100D60000B06DC01ED91FC910081118180E4E6E04D
:100D7000F1E0DE01119601900D928A95E1F78BE387
:100D80000E943A0625961CAE1DAE1EAE1FAE2597DC
:100D900025968CAD9DADAEADBFAD25978031974208
:100DA000A105B10548F1D801ED91FC91BE016F5F3D
:100DB0007F4FC8010995E3CF2D968CAD9DADAEADAB
:100DC000BFAD2D970196A11DB11D2D968CAF9DAF86
:100DD000AEAFBFAF2D978FCF29968CAD9DADAEAD89
:100DE000BFAD29970196A11DB11D29968CAF9DAF6E
:100DF000AEAFBFAF29979FCF25968CAD9DADAEAD61
:100E0000BFAD25970196A11DB11D25968CAF9DAF55
:100E1000AEAFBFAF2597BCCF991B79E004C0991F37
:100E2000961708F0961B881F7A95C9F78095089544
:100E300097FB072E16F4009407D077FD09D00E9487
:100E40002C0707FC05D03EF4909581959F4F08959F
:100E5000709561957F4F0895AA1BBB1B51E107C098
:100E6000AA1FBB1FA617B70710F0A61BB70B881F3A
:100E7000991F5A95A9F780959095BC01CD010895C9
:100E80000F931F93CF93DF938230910510F482E08C
:100E900090E0E0914A01F0914B0130E020E0B0E0B9
:100EA000A0E0309799F42115310509F447C0281BBB
:100EB000390B24303105C0F58A819B81611571059C
:100EC00071F1FB0193838283FE0111C04081518146
:100ED0000281138148175907F8F04817590799F408
:100EE000109761F012960C93129713961C933296FA
:100EF000CF01DF91CF911F910F91089500934A0187
:100F000010934B01F4CF2115310519F04217530707
:100F100018F49A01BD01EF01DF01F801C2CF9093EF
:100F20004B0180934A01D0CFFE01E20FF31F819362
:100F300091932250310939832883DACF20914801D7
:100F400030914901232B41F420910201309103019A
:100F50003093490120934801209100013091010113
:100F60002115310541F42DB73EB740910401509150
:100F70000501241B350BE0914801F0914901E2176E
:100F8000F307A0F42E1B3F0B2817390778F0AC01AC
:100F90004E5F5F4F2417350748F04E0F5F1F509389
:100FA00049014093480181939193A2CFF0E0E0E0A2
:100FB0009FCFCF93DF930097E9F0FC013297138224
:100FC0001282C0914A01D0914B01DE0130E020E055
:100FD0002097A1F420813181820F931F2091480135
:100FE000309149012817390709F067C0F09349018A
:100FF000E0934801DF91CF910895DA01AE17BF0762
:1010000008F040C012964D915C9113979D014115D7
:10101000510599F7D9011396FC93EE9312974D91D0
:101020005D91A40FB51FEA17FB0779F480819181C8
:101030000296840F951FD90111969C938E938281FD
:10104000938113969C938E931297B0E0A0E08A81CF
:101050009B810097B9F5FE0181919191E80FF91FED
:1010600080914801909149018E179F0719F61097BA
:1010700061F510924B0110924A01D0934901C0933F
:101080004801B8CFB383A28340815181840F951F5B
:10109000A817B90771F44E5F5F4F8D919C9111971E
:1010A000480F591F5183408312968D919C919383D1
:1010B00082832115310509F0ADCFF0934B01E09308
:1010C0004A0198CFDE01EC01C2CF13961C921E920A
:0810D0001297D3CFF894FFCF73
:1010D80000004C01200068656C6C6F20776F726CA3
:1010E80064202020202020202020202020202020B4
:1010F80020202020202020202020202020202020E8
:1011080020202020202020202020202020202020D7
:0811180020202020202000000F
:00000001FF
